{
  "contractName": "CerberusWallet",
  "abi": [
    {
      "constant": true,
      "inputs": [],
      "name": "oraclePayment",
      "outputs": [
        {
          "name": "",
          "type": "uint256"
        }
      ],
      "payable": false,
      "stateMutability": "view",
      "type": "function"
    },
    {
      "constant": true,
      "inputs": [
        {
          "name": "",
          "type": "bytes32"
        }
      ],
      "name": "ordersMapping",
      "outputs": [
        {
          "name": "",
          "type": "bytes32"
        }
      ],
      "payable": false,
      "stateMutability": "view",
      "type": "function"
    },
    {
      "constant": false,
      "inputs": [],
      "name": "renounceOwnership",
      "outputs": [],
      "payable": false,
      "stateMutability": "nonpayable",
      "type": "function"
    },
    {
      "constant": true,
      "inputs": [],
      "name": "data",
      "outputs": [
        {
          "name": "",
          "type": "uint256"
        }
      ],
      "payable": false,
      "stateMutability": "view",
      "type": "function"
    },
    {
      "constant": true,
      "inputs": [],
      "name": "alarmPayment",
      "outputs": [
        {
          "name": "",
          "type": "uint256"
        }
      ],
      "payable": false,
      "stateMutability": "view",
      "type": "function"
    },
    {
      "constant": true,
      "inputs": [],
      "name": "owner",
      "outputs": [
        {
          "name": "",
          "type": "address"
        }
      ],
      "payable": false,
      "stateMutability": "view",
      "type": "function"
    },
    {
      "constant": true,
      "inputs": [
        {
          "name": "",
          "type": "bytes32"
        }
      ],
      "name": "orders",
      "outputs": [
        {
          "name": "recipient",
          "type": "address"
        },
        {
          "name": "amount",
          "type": "uint256"
        }
      ],
      "payable": false,
      "stateMutability": "view",
      "type": "function"
    },
    {
      "constant": true,
      "inputs": [],
      "name": "cerberusJobId",
      "outputs": [
        {
          "name": "",
          "type": "bytes32"
        }
      ],
      "payable": false,
      "stateMutability": "view",
      "type": "function"
    },
    {
      "constant": true,
      "inputs": [],
      "name": "alarmJobId",
      "outputs": [
        {
          "name": "",
          "type": "bytes32"
        }
      ],
      "payable": false,
      "stateMutability": "view",
      "type": "function"
    },
    {
      "constant": true,
      "inputs": [],
      "name": "cerberusPayment",
      "outputs": [
        {
          "name": "",
          "type": "uint256"
        }
      ],
      "payable": false,
      "stateMutability": "view",
      "type": "function"
    },
    {
      "constant": true,
      "inputs": [],
      "name": "cerberusOracle",
      "outputs": [
        {
          "name": "",
          "type": "address"
        }
      ],
      "payable": false,
      "stateMutability": "view",
      "type": "function"
    },
    {
      "constant": true,
      "inputs": [],
      "name": "alarmOracle",
      "outputs": [
        {
          "name": "",
          "type": "address"
        }
      ],
      "payable": false,
      "stateMutability": "view",
      "type": "function"
    },
    {
      "constant": false,
      "inputs": [
        {
          "name": "_newOwner",
          "type": "address"
        }
      ],
      "name": "transferOwnership",
      "outputs": [],
      "payable": false,
      "stateMutability": "nonpayable",
      "type": "function"
    },
    {
      "inputs": [
        {
          "name": "_link",
          "type": "address"
        },
        {
          "name": "_alarmOracle",
          "type": "address"
        },
        {
          "name": "_alarmJobId",
          "type": "bytes32"
        },
        {
          "name": "_alarmPayment",
          "type": "uint256"
        },
        {
          "name": "_cerberusOracle",
          "type": "address"
        },
        {
          "name": "_cerberusJobId",
          "type": "bytes32"
        },
        {
          "name": "_cerberusPayment",
          "type": "uint256"
        }
      ],
      "payable": false,
      "stateMutability": "nonpayable",
      "type": "constructor"
    },
    {
      "payable": true,
      "stateMutability": "payable",
      "type": "fallback"
    },
    {
      "anonymous": false,
      "inputs": [
        {
          "indexed": false,
          "name": "request",
          "type": "bytes32"
        },
        {
          "indexed": false,
          "name": "to",
          "type": "address"
        },
        {
          "indexed": false,
          "name": "amount",
          "type": "uint256"
        }
      ],
      "name": "NewPaymentRegistered",
      "type": "event"
    },
    {
      "anonymous": false,
      "inputs": [
        {
          "indexed": false,
          "name": "value",
          "type": "uint256"
        }
      ],
      "name": "MoneyCome",
      "type": "event"
    },
    {
      "anonymous": false,
      "inputs": [
        {
          "indexed": false,
          "name": "to",
          "type": "address"
        },
        {
          "indexed": false,
          "name": "amount",
          "type": "uint256"
        }
      ],
      "name": "MoneySent",
      "type": "event"
    },
    {
      "anonymous": false,
      "inputs": [
        {
          "indexed": true,
          "name": "previousOwner",
          "type": "address"
        }
      ],
      "name": "OwnershipRenounced",
      "type": "event"
    },
    {
      "anonymous": false,
      "inputs": [
        {
          "indexed": true,
          "name": "previousOwner",
          "type": "address"
        },
        {
          "indexed": true,
          "name": "newOwner",
          "type": "address"
        }
      ],
      "name": "OwnershipTransferred",
      "type": "event"
    },
    {
      "anonymous": false,
      "inputs": [
        {
          "indexed": true,
          "name": "id",
          "type": "bytes32"
        }
      ],
      "name": "ChainlinkRequested",
      "type": "event"
    },
    {
      "anonymous": false,
      "inputs": [
        {
          "indexed": true,
          "name": "id",
          "type": "bytes32"
        }
      ],
      "name": "ChainlinkFulfilled",
      "type": "event"
    },
    {
      "anonymous": false,
      "inputs": [
        {
          "indexed": true,
          "name": "id",
          "type": "bytes32"
        }
      ],
      "name": "ChainlinkCancelled",
      "type": "event"
    },
    {
      "constant": false,
      "inputs": [
        {
          "name": "_to",
          "type": "address"
        },
        {
          "name": "_amount",
          "type": "uint256"
        }
      ],
      "name": "sendMoney",
      "outputs": [],
      "payable": false,
      "stateMutability": "nonpayable",
      "type": "function"
    },
    {
      "constant": false,
      "inputs": [
        {
          "name": "_requestId",
          "type": "bytes32"
        },
        {
          "name": "_data",
          "type": "uint256"
        }
      ],
      "name": "fulfillConfirmationRequest",
      "outputs": [],
      "payable": false,
      "stateMutability": "nonpayable",
      "type": "function"
    },
    {
      "constant": true,
      "inputs": [
        {
          "name": "_bytes32",
          "type": "bytes32"
        }
      ],
      "name": "bytes32ToStr",
      "outputs": [
        {
          "name": "",
          "type": "string"
        }
      ],
      "payable": false,
      "stateMutability": "pure",
      "type": "function"
    },
    {
      "constant": false,
      "inputs": [
        {
          "name": "_requestId",
          "type": "bytes32"
        },
        {
          "name": "_data",
          "type": "bool"
        }
      ],
      "name": "fulfillPaymentRequest",
      "outputs": [],
      "payable": false,
      "stateMutability": "nonpayable",
      "type": "function"
    },
    {
      "constant": true,
      "inputs": [],
      "name": "getAlarmOracle",
      "outputs": [
        {
          "name": "",
          "type": "address"
        }
      ],
      "payable": false,
      "stateMutability": "view",
      "type": "function"
    },
    {
      "constant": true,
      "inputs": [],
      "name": "getAlarmPayment",
      "outputs": [
        {
          "name": "",
          "type": "uint256"
        }
      ],
      "payable": false,
      "stateMutability": "view",
      "type": "function"
    },
    {
      "constant": true,
      "inputs": [],
      "name": "getAlarmJobId",
      "outputs": [
        {
          "name": "",
          "type": "bytes32"
        }
      ],
      "payable": false,
      "stateMutability": "view",
      "type": "function"
    }
  ],
  "bytecode": "0x608060405260016004553480156200001657600080fd5b5060405160e080620022268339810180604052810190808051906020019092919080519060200190929190805190602001909291908051906020019092919080519060200190929190805190602001909291908051906020019092919050505033600660006101000a81548173ffffffffffffffffffffffffffffffffffffffff021916908373ffffffffffffffffffffffffffffffffffffffff16021790555085600960006101000a81548173ffffffffffffffffffffffffffffffffffffffff021916908373ffffffffffffffffffffffffffffffffffffffff16021790555084600a816000191690555083600b8190555082600c60006101000a81548173ffffffffffffffffffffffffffffffffffffffff021916908373ffffffffffffffffffffffffffffffffffffffff16021790555081600d816000191690555080600e81905550600073ffffffffffffffffffffffffffffffffffffffff168773ffffffffffffffffffffffffffffffffffffffff161415620001b257620001ac620001da640100000000026401000000009004565b620001cd565b620001cc87620002ab640100000000026401000000009004565b5b50505050505050620002ef565b620002a973c89bd4e1632d3a43cb03aaad5262cbe4038bc57173ffffffffffffffffffffffffffffffffffffffff166338cc48316040518163ffffffff167c0100000000000000000000000000000000000000000000000000000000028152600401602060405180830381600087803b1580156200025757600080fd5b505af11580156200026c573d6000803e3d6000fd5b505050506040513d60208110156200028357600080fd5b8101908080519060200190929190505050620002ab640100000000026401000000009004565b565b80600260006101000a81548173ffffffffffffffffffffffffffffffffffffffff021916908373ffffffffffffffffffffffffffffffffffffffff16021790555050565b611f2780620002ff6000396000f300608060405260043610610112576000357c0100000000000000000000000000000000000000000000000000000000900463ffffffff1680630c02e130146101a757806348a4bbf0146101d257806351ba83541461021f578063715018a61461025a57806373d4a13a146102715780637afc0b481461029c5780638732ed57146102c75780638da5cb5b146102fa5780639c3f1e9014610351578063aa7eb8ab146103c9578063be805bf214610420578063c0b7959a1461045d578063c219c24f14610490578063c8c8d661146104c3578063e7e67810146104ee578063ee4ae2c914610545578063ef0b236814610592578063f2208de51461063c578063f2c4b51114610693578063f2fde38b146106be575b600660009054906101000a900473ffffffffffffffffffffffffffffffffffffffff1673ffffffffffffffffffffffffffffffffffffffff163373ffffffffffffffffffffffffffffffffffffffff1614151561016e57600080fd5b7f2b4e39b9d9d731771d814573c677bff9ec46c1d0f549dedfcd03860b148d039a346040518082815260200191505060405180910390a1005b3480156101b357600080fd5b506101bc610701565b6040518082815260200191505060405180910390f35b3480156101de57600080fd5b506102016004803603810190808035600019169060200190929190505050610707565b60405180826000191660001916815260200191505060405180910390f35b34801561022b57600080fd5b5061025860048036038101908080356000191690602001909291908035906020019092919050505061071f565b005b34801561026657600080fd5b5061026f61097d565b005b34801561027d57600080fd5b50610286610a82565b6040518082815260200191505060405180910390f35b3480156102a857600080fd5b506102b1610a88565b6040518082815260200191505060405180910390f35b3480156102d357600080fd5b506102dc610a8e565b60405180826000191660001916815260200191505060405180910390f35b34801561030657600080fd5b5061030f610a98565b604051808273ffffffffffffffffffffffffffffffffffffffff1673ffffffffffffffffffffffffffffffffffffffff16815260200191505060405180910390f35b34801561035d57600080fd5b506103806004803603810190808035600019169060200190929190505050610abe565b604051808373ffffffffffffffffffffffffffffffffffffffff1673ffffffffffffffffffffffffffffffffffffffff1681526020018281526020019250505060405180910390f35b3480156103d557600080fd5b506103de610b02565b604051808273ffffffffffffffffffffffffffffffffffffffff1673ffffffffffffffffffffffffffffffffffffffff16815260200191505060405180910390f35b34801561042c57600080fd5b5061045b6004803603810190808035600019169060200190929190803515159060200190929190505050610b2c565b005b34801561046957600080fd5b50610472610d85565b60405180826000191660001916815260200191505060405180910390f35b34801561049c57600080fd5b506104a5610d8b565b60405180826000191660001916815260200191505060405180910390f35b3480156104cf57600080fd5b506104d8610d91565b6040518082815260200191505060405180910390f35b3480156104fa57600080fd5b50610503610d97565b604051808273ffffffffffffffffffffffffffffffffffffffff1673ffffffffffffffffffffffffffffffffffffffff16815260200191505060405180910390f35b34801561055157600080fd5b50610590600480360381019080803573ffffffffffffffffffffffffffffffffffffffff16906020019092919080359060200190929190505050610dbd565b005b34801561059e57600080fd5b506105c16004803603810190808035600019169060200190929190505050610f92565b6040518080602001828103825283818151815260200191508051906020019080838360005b838110156106015780820151818401526020810190506105e6565b50505050905090810190601f16801561062e5780820380516001836020036101000a031916815260200191505b509250505060405180910390f35b34801561064857600080fd5b506106516111be565b604051808273ffffffffffffffffffffffffffffffffffffffff1673ffffffffffffffffffffffffffffffffffffffff16815260200191505060405180910390f35b34801561069f57600080fd5b506106a86111e4565b6040518082815260200191505060405180910390f35b3480156106ca57600080fd5b506106ff600480360381019080803573ffffffffffffffffffffffffffffffffffffffff1690602001909291905050506111ee565b005b60085481565b60116020528060005260406000206000915090505481565b610727611e59565b60008360056000826000191660001916815260200190815260200160002060009054906101000a900473ffffffffffffffffffffffffffffffffffffffff1673ffffffffffffffffffffffffffffffffffffffff163373ffffffffffffffffffffffffffffffffffffffff1614151561082e576040517f08c379a00000000000000000000000000000000000000000000000000000000081526004018080602001828103825260288152602001807f536f75726365206d75737420626520746865206f7261636c65206f662074686581526020017f207265717565737400000000000000000000000000000000000000000000000081525060400191505060405180910390fd5b60056000826000191660001916815260200190815260200160002060006101000a81549073ffffffffffffffffffffffffffffffffffffffff021916905580600019167f7cc135e0cebb02c3480ae5d74d377283180a2601f8f644edf7987b009316c63a60405160405180910390a26108cd600d543063be805bf27c010000000000000000000000000000000000000000000000000000000002611256565b92506109216040805190810160405280600281526020017f696400000000000000000000000000000000000000000000000000000000000081525061091187610f92565b856112879092919063ffffffff16565b610950600c60009054906101000a900473ffffffffffffffffffffffffffffffffffffffff1684600e546112ba565b91508460116000846000191660001916815260200190815260200160002081600019169055505050505050565b600660009054906101000a900473ffffffffffffffffffffffffffffffffffffffff1673ffffffffffffffffffffffffffffffffffffffff163373ffffffffffffffffffffffffffffffffffffffff161415156109d957600080fd5b600660009054906101000a900473ffffffffffffffffffffffffffffffffffffffff1673ffffffffffffffffffffffffffffffffffffffff167ff8df31144d9c2f0f6b59d69b8b98abd5459d07f2742c4df920b25aae33c6482060405160405180910390a26000600660006101000a81548173ffffffffffffffffffffffffffffffffffffffff021916908373ffffffffffffffffffffffffffffffffffffffff160217905550565b60075481565b600b5481565b6000600a54905090565b600660009054906101000a900473ffffffffffffffffffffffffffffffffffffffff1681565b60106020528060005260406000206000915090508060000160009054906101000a900473ffffffffffffffffffffffffffffffffffffffff16908060010154905082565b6000600960009054906101000a900473ffffffffffffffffffffffffffffffffffffffff16905090565b60008060008460056000826000191660001916815260200190815260200160002060009054906101000a900473ffffffffffffffffffffffffffffffffffffffff1673ffffffffffffffffffffffffffffffffffffffff163373ffffffffffffffffffffffffffffffffffffffff16141515610c36576040517f08c379a00000000000000000000000000000000000000000000000000000000081526004018080602001828103825260288152602001807f536f75726365206d75737420626520746865206f7261636c65206f662074686581526020017f207265717565737400000000000000000000000000000000000000000000000081525060400191505060405180910390fd5b60056000826000191660001916815260200190815260200160002060006101000a81549073ffffffffffffffffffffffffffffffffffffffff021916905580600019167f7cc135e0cebb02c3480ae5d74d377283180a2601f8f644edf7987b009316c63a60405160405180910390a28415610d7d5760106000601160008960001916600019168152602001908152602001600020546000191660001916815260200190815260200160002093508360000160009054906101000a900473ffffffffffffffffffffffffffffffffffffffff169250836001015491507f7f51d406915971d4ac1c91af96be5187ea6ab64753785aad519a533def80a41e8383604051808373ffffffffffffffffffffffffffffffffffffffff1673ffffffffffffffffffffffffffffffffffffffff1681526020018281526020019250505060405180910390a15b505050505050565b600d5481565b600a5481565b600e5481565b600c60009054906101000a900473ffffffffffffffffffffffffffffffffffffffff1681565b610dc5611e59565b6000610df7600a54306351ba83547c010000000000000000000000000000000000000000000000000000000002611256565b9150610e466040805190810160405280600581526020017f756e74696c000000000000000000000000000000000000000000000000000000815250603c4201846116469092919063ffffffff16565b610e75600960009054906101000a900473ffffffffffffffffffffffffffffffffffffffff1683600b546112ba565b905060408051908101604052808573ffffffffffffffffffffffffffffffffffffffff1681526020018481525060106000836000191660001916815260200190815260200160002060008201518160000160006101000a81548173ffffffffffffffffffffffffffffffffffffffff021916908373ffffffffffffffffffffffffffffffffffffffff160217905550602082015181600101559050507f5c892f9747303c14be3bd2a365161d8bd4101f6fa607efac7ecc5ee6373305688185856040518084600019166000191681526020018373ffffffffffffffffffffffffffffffffffffffff1673ffffffffffffffffffffffffffffffffffffffff168152602001828152602001935050505060405180910390a150505050565b6060806000604080519080825280601f01601f191660200182016040528015610fca5781602001602082028038833980820191505090505b5091505b60208110156111b4576041601060f07f010000000000000000000000000000000000000000000000000000000000000002868460208110151561100d57fe5b1a7f010000000000000000000000000000000000000000000000000000000000000002167f0100000000000000000000000000000000000000000000000000000000000000900460ff1681151561106057fe5b04017f010000000000000000000000000000000000000000000000000000000000000002828260020281518110151561109557fe5b9060200101907effffffffffffffffffffffffffffffffffffffffffffffffffffffffffffff1916908160001a9053506041600f7f01000000000000000000000000000000000000000000000000000000000000000285836020811015156110f957fe5b1a7f010000000000000000000000000000000000000000000000000000000000000002167f01000000000000000000000000000000000000000000000000000000000000009004017f010000000000000000000000000000000000000000000000000000000000000002826001836002020181518110151561117757fe5b9060200101907effffffffffffffffffffffffffffffffffffffffffffffffffffffffffffff1916908160001a9053508080600101915050610fce565b8192505050919050565b600960009054906101000a900473ffffffffffffffffffffffffffffffffffffffff1681565b6000600b54905090565b600660009054906101000a900473ffffffffffffffffffffffffffffffffffffffff1673ffffffffffffffffffffffffffffffffffffffff163373ffffffffffffffffffffffffffffffffffffffff1614151561124a57600080fd5b61125381611679565b50565b61125e611e59565b611266611e59565b61127d85858584611775909392919063ffffffff16565b9150509392505050565b61129e82846080015161182f90919063ffffffff16565b6112b581846080015161182f90919063ffffffff16565b505050565b600030600454604051602001808373ffffffffffffffffffffffffffffffffffffffff1673ffffffffffffffffffffffffffffffffffffffff166c01000000000000000000000000028152601401828152602001925050506040516020818303038152906040526040518082805190602001908083835b6020831015156113565780518252602082019150602081019050602083039250611331565b6001836020036101000a038019825116818451168082178552505050505050905001915050604051809103902090506004548360600181815250508360056000836000191660001916815260200190815260200160002060006101000a81548173ffffffffffffffffffffffffffffffffffffffff021916908373ffffffffffffffffffffffffffffffffffffffff16021790555080600019167fb5e6e01e79f91267dc17b4e6314d5d4d03593d2ceee0fbb452b750bd70ea5af960405160405180910390a2600260009054906101000a900473ffffffffffffffffffffffffffffffffffffffff1673ffffffffffffffffffffffffffffffffffffffff16634000aea0858461146587611854565b6040518463ffffffff167c0100000000000000000000000000000000000000000000000000000000028152600401808473ffffffffffffffffffffffffffffffffffffffff1673ffffffffffffffffffffffffffffffffffffffff16815260200183815260200180602001828103825283818151815260200191508051906020019080838360005b838110156115085780820151818401526020810190506114ed565b50505050905090810190601f1680156115355780820380516001836020036101000a031916815260200191505b50945050505050602060405180830381600087803b15801561155657600080fd5b505af115801561156a573d6000803e3d6000fd5b505050506040513d602081101561158057600080fd5b8101908080519060200190929190505050151561162b576040517f08c379a00000000000000000000000000000000000000000000000000000000081526004018080602001828103825260238152602001807f756e61626c6520746f207472616e73666572416e6443616c6c20746f206f726181526020017f636c65000000000000000000000000000000000000000000000000000000000081525060400191505060405180910390fd5b60016004600082825401925050819055508090509392505050565b61165d82846080015161182f90919063ffffffff16565b611674818460800151611a7f90919063ffffffff16565b505050565b600073ffffffffffffffffffffffffffffffffffffffff168173ffffffffffffffffffffffffffffffffffffffff16141515156116b557600080fd5b8073ffffffffffffffffffffffffffffffffffffffff16600660009054906101000a900473ffffffffffffffffffffffffffffffffffffffff1673ffffffffffffffffffffffffffffffffffffffff167f8be0079c531659141344cd1fd0a4f28419497f9722a3daafe3b4186f6b6457e060405160405180910390a380600660006101000a81548173ffffffffffffffffffffffffffffffffffffffff021916908373ffffffffffffffffffffffffffffffffffffffff16021790555050565b61177d611e59565b61178d8560800151610100611a8f565b50838560000190600019169081600019168152505082856020019073ffffffffffffffffffffffffffffffffffffffff16908173ffffffffffffffffffffffffffffffffffffffff16815250508185604001907bffffffffffffffffffffffffffffffffffffffffffffffffffffffff191690817bffffffffffffffffffffffffffffffffffffffffffffffffffffffff191681525050849050949350505050565b61183c8260038351611ae9565b61184f8183611c4790919063ffffffff16565b505050565b6060600360009054906101000a900473ffffffffffffffffffffffffffffffffffffffff1673ffffffffffffffffffffffffffffffffffffffff16634042994690507c01000000000000000000000000000000000000000000000000000000000260008084600001518560200151866040015187606001516001896080015160000151604051602401808973ffffffffffffffffffffffffffffffffffffffff1673ffffffffffffffffffffffffffffffffffffffff16815260200188815260200187600019166000191681526020018673ffffffffffffffffffffffffffffffffffffffff1673ffffffffffffffffffffffffffffffffffffffff168152602001857bffffffffffffffffffffffffffffffffffffffffffffffffffffffff19167bffffffffffffffffffffffffffffffffffffffffffffffffffffffff1916815260200184815260200183815260200180602001828103825283818151815260200191508051906020019080838360005b838110156119e25780820151818401526020810190506119c7565b50505050905090810190601f168015611a0f5780820380516001836020036101000a031916815260200191505b509950505050505050505050604051602081830303815290604052907bffffffffffffffffffffffffffffffffffffffffffffffffffffffff19166020820180517bffffffffffffffffffffffffffffffffffffffffffffffffffffffff83818316178352505050509050919050565b611a8b82600083611ae9565b5050565b611a97611ec7565b6000602083811515611aa557fe5b06141515611ac257602082811515611ab957fe5b06602003820191505b81836020018181525050604051808452600081528281016020016040525082905092915050565b601781111515611b1b57611b158160058460ff169060020a0260ff161784611c6990919063ffffffff16565b50611c42565b60ff81111515611b6257611b45601860058460ff169060020a021784611c6990919063ffffffff16565b50611b5c81600185611c899092919063ffffffff16565b50611c41565b61ffff81111515611baa57611b8d601960058460ff169060020a021784611c6990919063ffffffff16565b50611ba481600285611c899092919063ffffffff16565b50611c40565b63ffffffff81111515611bf457611bd7601a60058460ff169060020a021784611c6990919063ffffffff16565b50611bee81600485611c899092919063ffffffff16565b50611c3f565b67ffffffffffffffff81111515611c3e57611c25601b60058460ff169060020a021784611c6990919063ffffffff16565b50611c3c81600885611c899092919063ffffffff16565b505b5b5b5b5b505050565b611c4f611ec7565b611c6183846000015151848551611cab565b905092915050565b611c71611ec7565b611c818384600001515184611d68565b905092915050565b611c91611ec7565b611ca2848560000151518585611db8565b90509392505050565b611cb3611ec7565b600080600085518511151515611cc857600080fd5b87602001518588011115611cf357611cf2886002611cec8b602001518b8a01611e19565b02611e35565b5b875180518860208301019450808988011115611d0f5788870182525b60208801935050505b602085101515611d3d5781518352602083019250602082019150602085039450611d18565b6001856020036101000a03905080198251168184511681811785525050879350505050949350505050565b611d70611ec7565b836020015183101515611d8f57611d8e846002866020015102611e35565b5b8351805160208583010184815381861415611dab576001820183525b5050508390509392505050565b611dc0611ec7565b600085602001518584011115611de057611ddf86600287860102611e35565b5b6001836101000a0390508551838682010185831982511617815281518588011115611e0b5784870182525b505085915050949350505050565b600081831115611e2b57829050611e2f565b8190505b92915050565b606082600001519050611e488383611a8f565b50611e538382611c47565b50505050565b60c06040519081016040528060008019168152602001600073ffffffffffffffffffffffffffffffffffffffff16815260200160007bffffffffffffffffffffffffffffffffffffffffffffffffffffffff1916815260200160008152602001611ec1611ee1565b81525090565b604080519081016040528060608152602001600081525090565b6040805190810160405280606081526020016000815250905600a165627a7a723058209f0f637dbc0e10c7d2bd678452593d75adadea5a7de59e3837fcdbd6edba6f8d0029",
  "source": "pragma solidity 0.4.24;\n\nimport \"chainlink/contracts/ChainlinkClient.sol\";\nimport \"openzeppelin-solidity/contracts/ownership/Ownable.sol\";\n\n/**\n * @title CerberusWallet is an example contract which requests data from\n * the Chainlink network\n * @dev This contract is designed to work on multiple networks, including\n * local test networks\n */\ncontract CerberusWallet is ChainlinkClient, Ownable {\n\n  event NewPaymentRegistered(bytes32 request, address to, uint256 amount);\n  event MoneyCome(uint256 value);\n  event MoneySent(address to, uint256 amount);\n\n  uint256 public data;\n  uint256 public oraclePayment;\n\n  address public alarmOracle;\n  bytes32 public alarmJobId;\n  uint256 public alarmPayment;\n\n  address public cerberusOracle;\n  bytes32 public cerberusJobId;\n  uint256 public cerberusPayment;\n\n  uint8 delay;\n\n  struct PaymentRequest {\n    address recipient;\n    uint256 amount;\n  }\n\n  mapping(bytes32 => PaymentRequest) public orders;\n  mapping(bytes32 => bytes32) public ordersMapping;\n\n  /**\n   * @notice Deploy the contract with a specified address for the LINK\n   * and Oracle contract addresses\n   * @dev Sets the storage for the specified addresses\n   * @param _link The address of the LINK token contract\n   */\n  constructor(address _link,\n              address _alarmOracle,\n              bytes32 _alarmJobId,\n              uint256 _alarmPayment,\n              address _cerberusOracle,\n              bytes32 _cerberusJobId,\n              uint256 _cerberusPayment\n            ) public {\n\n    alarmOracle = _alarmOracle;\n    alarmJobId = _alarmJobId;\n    alarmPayment = _alarmPayment;\n    cerberusOracle = _cerberusOracle;\n    cerberusJobId = _cerberusJobId;\n    cerberusPayment = _cerberusPayment;\n\n    if (_link == address(0)) {\n      setPublicChainlinkToken();\n    } else {\n      setChainlinkToken(_link);\n    }\n  }\n\n  function () payable onlyOwner {\n    emit MoneyCome(msg.value);\n  }\n\n  function sendMoney(address _to, uint256 _amount) {\n    Chainlink.Request memory req = buildChainlinkRequest(alarmJobId, this, this.fulfillConfirmationRequest.selector);\n    req.addUint(\"until\", now + 1 minutes);\n    bytes32 reqID = sendChainlinkRequestTo(alarmOracle, req, alarmPayment);\n    orders[reqID] = PaymentRequest(_to, _amount);\n    emit NewPaymentRegistered(reqID, _to, _amount);\n  }\n\n  /**\n   * @notice The fulfill method from requests created by this contract\n   * @dev The recordChainlinkFulfillment protects this function from being called\n   * by anyone other than the oracle address that the request was sent to\n   * @param _requestId The ID that was generated for the request\n   * @param _data The answer provided by the oracle\n   */\n  function fulfillConfirmationRequest(bytes32 _requestId, uint256 _data)\n  public\n  recordChainlinkFulfillment(_requestId)\n  {\n    Chainlink.Request memory req = buildChainlinkRequest(cerberusJobId, this, this.fulfillPaymentRequest.selector);\n    req.add(\"id\", bytes32ToStr(_requestId));\n    bytes32 reqID = sendChainlinkRequestTo(cerberusOracle, req, cerberusPayment);\n    ordersMapping[reqID] = _requestId;\n  }\n\n  function bytes32ToStr(bytes32 _bytes32) public pure returns (string) {\n\n    bytes memory bytesArray = new bytes(64);\n    for (uint256 i; i < 32; i++) {\n      bytesArray[2*i] = bytes1(uint8(_bytes32[i] & 240 ) / 16 + 65);\n      bytesArray[2*i+1] = bytes1(uint8(_bytes32[i] & 15) + 65);\n\n    }\n    return string(bytesArray);\n  }\n\n  function fulfillPaymentRequest(bytes32 _requestId, bool _data)\n  public\n  recordChainlinkFulfillment(_requestId)\n  {\n    if(_data) {\n      PaymentRequest request = orders[ordersMapping[_requestId]];\n      address to = request.recipient;\n      uint256 amount = request.amount;\n\n      emit MoneySent(to, amount);\n    }\n  }\n\n  function getAlarmOracle() public view returns (address)  {\n    return alarmOracle;\n  }\n\n  function getAlarmPayment() public view returns (uint256)  {\n    return alarmPayment;\n  }\n  function getAlarmJobId() public view returns (bytes32)  {\n    return alarmJobId;\n  }\n\n\n\n}\n",
  "sourcePath": "/Users/mikhail/Coding/cerberus/contract/contracts/CerberusWallet.sol",
  "compiler": {
    "name": "solc",
    "version": "0.4.24+commit.e67f0147.Emscripten.clang"
  },
  "schemaVersion": "3.0.9",
  "updatedAt": "2019-10-31T18:28:31.932Z",
  "devdoc": {
    "methods": {
      "fulfillConfirmationRequest(bytes32,uint256)": {
        "details": "The recordChainlinkFulfillment protects this function from being called by anyone other than the oracle address that the request was sent to",
        "params": {
          "_data": "The answer provided by the oracle",
          "_requestId": "The ID that was generated for the request"
        }
      },
      "renounceOwnership()": {
        "details": "Allows the current owner to relinquish control of the contract."
      },
      "transferOwnership(address)": {
        "details": "Allows the current owner to transfer control of the contract to a newOwner.",
        "params": {
          "_newOwner": "The address to transfer ownership to."
        }
      }
    },
    "title": "CerberusWallet is an example contract which requests data from the Chainlink network"
  },
  "userdoc": {
    "methods": {
      "fulfillConfirmationRequest(bytes32,uint256)": {
        "notice": "The fulfill method from requests created by this contract"
      },
      "renounceOwnership()": {
        "notice": "Renouncing to ownership will leave the contract without an owner. It will not be possible to call the functions with the `onlyOwner` modifier anymore."
      }
    }
  }
}